:020000040800F2
:104000008C3A00202141000801960008059600081E
:10401000099600080D96000811960008000000009F
:1040200000000000000000000000000019960008D9
:1040300015960008000000001D9600082196000853
:1040400025960008299600082D960008319600084C
:1040500035960008399600083D96000841960008FC
:1040600045960008499600084D96000851960008AC
:1040700055960008599600085D960008619600085C
:1040800065960008699600086D960008719600080C
:1040900079960008819600088596000889960008A0
:1040A0008D9600089196000895960008999600084C
:1040B0009D960008A1960008619700086597000882
:1040C000699700086D9700087197000875970008B8
:1040D000799700087D970008819700088597000868
:1040E000899700088D970008919700080120704774
:1040F00010B5094C02E007F01FFB0C34074884425E
:1041000008D26068A16822688142F4D1002107F0DA
:104110001FFBF2E710BD00BF88B70008A0B700087A
:10412000024CA04730B1024CA04703E0ED4000082C
:10413000F1400008034C4FF00000A047024C034D33
:10414000AE462047FD7F000835B7000865B7000878
:10415000F0B582B0030008001900891C0C001100A2
:10416000891C0191002818D120212170641C302164
:104170002170641C2E212170641C30212170641C6C
:1041800030212170641C0021217000211970210050
:104190001F00BF1CC91B5970D1E0012803DB20217F
:1041A0002170641C04E02D212170641C0100484230
:1041B000050000210E00052100910A2D0ADB0A21CD
:1041C00095FBF1F5761CB242F7DA00990A2779439C
:1041D0000091F2E7032196FBF1F11970964201DBA1
:1041E000009940183100002900F09580012900F065
:1041F0008680022977D0032960D0042952D005296E
:1042000044D006292FD0072921D0082913D0092905
:1042100040F08580C24990FBF1F130312170641C7F
:10422000521E002A7BD0BE4907F0A8FA2E21217029
:10423000641C00210E00BB4990FBF1F1303121706C
:10424000641C521E002A6AD0B64907F097FAB64994
:1042500090FBF1F130312170641C521E002A5ED0B7
:10426000B14907F08BFAB14990FBF1F1303121707F
:10427000641C521E002A52D0AC4907F07FFA002E6F
:1042800004D02E212170641C00210E00A84990FB4F
:10429000F1F130312170641C521E002A3FD0A44934
:1042A00007F06CFAA34990FBF1F130312170641CE6
:1042B000521E002A33D09F4907F060FA5FF47A71EA
:1042C00090FBF1F130312170641C521E002A26D07F
:1042D0005FF47A7107F052FA002E04D02E2121707B
:1042E000641C00210E00642190FBF1F1303121703B
:1042F000641C521E002A12D0642107F03FFA0A21E2
:1043000090FBF1F130312170641C521E002A06D05E
:104310000A2107F033FA010030312170641C019941
:104320005918891C8C4203D220212170641CF6E7A5
:104330000021217021001F00BF1CC91B597002B051
:10434000F0BD0000F0B582B0030008001900891C20
:104350000C001100891C0191002818D13021217016
:10436000641C2E212170641C30212170641C3021BA
:104370002170641C30212170641C002121700021F7
:10438000197021001F00BF1CC91B5970C6E0050031
:1043900000210E00052100910A2D0ADB0A2195FB60
:1043A000F1F5761CB242F7DA00990A2779430091B9
:1043B000F2E7032196FBF1F11970964201DB0099B7
:1043C00040183100002900F09580012900F0868016
:1043D000022977D0032960D0042952D0052944D07E
:1043E00006292FD0072921D0082913D0092940F008
:1043F00085804B4990FBF1F130312170641C521ED5
:10440000002A7BD0464907F0B9F92E212170641C9F
:1044100000210E00434990FBF1F130312170641C02
:10442000521E002A6AD03F4907F0A8F93E4990FB86
:10443000F1F130312170641C521E002A5ED03A49DD
:1044400007F09CF9394990FBF1F130312170641C7F
:10445000521E002A52D0354907F090F9002E04D0A0
:104460002E212170641C00210E00314990FBF1F1D6
:1044700030312170641C521E002A3FD02C4907F0B5
:104480007DF92C4990FBF1F130312170641C521EF2
:10449000002A33D0274907F071F95FF47A7190FB55
:1044A000F1F130312170641C521E002A26D05FF4D5
:1044B0007A7107F063F9002E04D02E212170641C5C
:1044C00000210E00642190FBF1F130312170641C59
:1044D000521E002A12D0642107F050F90A2190FBE5
:1044E000F1F130312170641C521E002A06D00A21DD
:1044F00007F044F9010030312170641C019959180A
:10450000891C8C4203D220212170641CF6E7002113
:10451000217021001F00BF1CC91B597002B0F0BDE3
:1045200000CA9A3B00E1F5058096980040420F00D2
:10453000A08601001027000000B502000800000658
:10454000000E642190FBF1F130311170521C000615
:10455000000E642107F012F90006000E0A2190FBFC
:10456000F1F130311170521C0006000E0A2107F0E3
:1045700005F9010030311170521C0021117000BD8D
:1045800010B5FF2004004248002101605FF4007272
:104590000021C44804F00AFE0400002C01D02000D1
:1045A00074E0C0480078EB2820D0BE480078E928A5
:1045B0001CD0374837490978374A1278120412EB71
:1045C0000161364A127811EB0221354A12788918B6
:1045D00001605FF400722E4800684102B14804F0A7
:1045E000E5FD0400002C01D020004FE0AF482D492C
:1045F000097801802C482D4909782D4A127812EB50
:1046000001210180A6482B4909782B4A127812EB28
:104610000121018029482A4909782A4A127812047E
:1046200012EB0161284A127811EB0221274A127815
:1046300089180160264827490978274A127812EB21
:10464000012101809648008800280FD19648104922
:104650000968154A128889181D4A1288022302FB2C
:1046600003115FF40072514301600EE08E48084967
:1046700009680D4A12888918894A1288022302FBA8
:1046800003115FF4007251430160002010BD00BFB0
:10469000C80200205D2900205C2900205B29002041
:1046A0005A290020A1270020502A0020A3270020FB
:1046B000A2270020AB270020AA270020CC02002040
:1046C000B3270020B2270020B1270020B027002008
:1046D000542A0020B9270020B8270020F0B5040094
:1046E000FF2007006A48002101806A4800210180FC
:1046F0006B480088002803D167480021018002E050
:104700006548202101805FF40072674801686548B0
:1047100004F04CFD0700002F01D0FF20B6E0002080
:1047200006005D4800883604360C864280F0AD8075
:104730005FF400725C4800683604360C5FF4007168
:1047400006FB0101574804F031FD0700002F01D09E
:1047500038009BE0002005005FF400702D042D0C54
:10476000854280F090802D042D0C4E48405D4628F7
:1047700040F087802D042D0C4A4840194078492884
:1047800040F07F802D042D0C4648401980784C283D
:1047900077D12D042D0C43484019C078452870D19D
:1047A0002D042D0C3F484019007A442869D12D046E
:1047B0002D0C3C484019407A412862D12D042D0C23
:1047C00038484019807A54285BD12D042D0C354887
:1047D000401900792178884253D12D042D0C31489D
:1047E00040194079617888424BD12D042D0C2D4819
:1047F00040198079A178884243D125480580254811
:1048000006802748008800280AD100202D042D0C9E
:104810002449491908752D042D0C22494919487558
:104820001E482D042D0C1F494919497D2D042D0CBE
:104830001C4A5219127D120412EB01612D042D0C39
:10484000184A5219D27E11EB02212D042D0C154A63
:104850005219927E891801602348844612480368E1
:104860000D4800880D490A68921E1049098802FB0C
:1048700001015FF4007001FB00316046016000201F
:1048800004E0203568E7761C4BE7FF20F0BD00BF51
:10489000582A00205A2A00205C2A0020D402002036
:1048A000522A002094270020D0020020562A0020FF
:1048B00000B55FF400720C4801680C4804F076FC07
:1048C00000BD000010B5FF2004005FF40072064830
:1048D0000168064804F02AFC0400002C01D02000E6
:1048E00000E0200010BD0000D80200209427002026
:1048F00003490880024909880029FBD1704700005C
:104900005E2A0020934996220A8092490988394AF2
:10491000914263D28F490988944A1268D2F5805235
:1049200091425BD28C490988022251438B4A515AE9
:10493000884A128802235A43894B9A5AD2F5006258
:1049400051435FF4805291FBF2F1783108002A491B
:10495000098800291CD129490988294A1288891AFD
:10496000884206DA80490978002902D17E4901226D
:104970000A7022490988224A12888918814223DA5A
:104980007949097801291FD1774902220A701BE071
:104990001A4909881A4A12888918814206DA724926
:1049A0000978002902D1704901220A701349098847
:1049B000134A1288891A884206DA6B490978012954
:1049C00002D1694902220A7067490978022905D093
:1049D0006049604A1288521C0A8096E7BB4900224F
:1049E0000A805C490988034A914202D35E49032246
:1049F0000A707047D40E000066010020B402002047
:104A000064010020F0B581B057480078032802D136
:104A10005048962101804F480088AE4909884018C7
:104A2000494940180090A94800880400B4F5967FD1
:104A30007BDA4D480521017000985FF48061614385
:104A4000484A128802235A43404B9A5A91FBF2F18A
:104A500040180500002D06D5002005009D489D4901
:104A60000988491C0180B5F5805F06DB38480500E0
:104A7000984898490988491E01803C480068D0F54B
:104A80008050854251D291482100491C0180324812
:104A90000088022148433149085A0221304A05FB67
:104AA0000121498802226A432D4B9A5A891A4843A8
:104AB0005FF4805190FBF1F72748008802214843BA
:104AC0002649085A02216943254A515AD1F5006105
:104AD00048435FF4805190FBF1F278325FF48060DC
:104AE00060432049098802235943184B595A06F05C
:104AF00045FE78431B49098802235943134B595AF1
:104B000090FBF1F0101A0600DC2E02DBDB20060021
:104B100003E0132E01DA132006006A483100015524
:104B2000114804210170641C80E7104800680028C7
:104B300007D100F0B7F90E480088002801D101F034
:104B400099FD01B0F0BD00BF00F0FFFF04BE0008FA
:104B5000FF0F0000BC0200205A01002000000020CE
:104B6000DC0200205C010020802A00200C000240B2
:104B700076010020F0B581B04E4800788DF8000035
:104B8000504800788DF801004B4800788DF80200FD
:104B9000002004004D4800882404240C84424AD29A
:104BA0002404240C4348005D05002D062D0E2A0028
:104BB0001204120C9DF800100904090C20000004D6
:104BC000000C02F0E3F88DF800502404240C3D485A
:104BD000005D0600AA4B3606360E32001204120C97
:104BE0009DF801100904090C20000004000C02F0DB
:104BF00005FA8DF801602404240C2E48065524047F
:104C0000240C2D48005D07002C48007800280ED1A8
:104C10002D4B3F063F0E3A001204120C9DF8021075
:104C20000904090C20000004000C02F0E7F98DF8DB
:104C30000270641CAEE7254800882149884231D3C0
:104C400095480121017021480021018001F02EFCCE
:104C50008E480078801C5FF496711D4A128800FB14
:104C600001201C4909884018B0F5805F05DA8748A3
:104C700086490978491C017005E0844800210170CB
:104C80008648002101708648642101807E480088A2
:104C9000042803D081480021017009E0784802F01F
:104CA000DFF905E07D48022101707B480021017099
:104CB00001B0F0BD0824002028000020792A00203F
:104CC0002B010000DC2200205EC00000602A0020D2
:104CD000BC0200207401002000B56B480088002849
:104CE0002ED16A48002101706A48008800280DD141
:104CF00069480021017069480078002803D067489E
:104D00000078012808D1FFF7FDFD05E06348022186
:104D100001705F480021018060480078022803D0BC
:104D20005E480078032801D1FFF76CFE5B480078ED
:104D3000042805D35A480088002801D1FFF71AFF3C
:104D400051480088012831D1504800210170514854
:104D5000008800280DD15048002101704F4800788C
:104D6000002803D04D480078012808D1FFF7CAFD7C
:104D700005E04A480221017045480021018047486A
:104D80000078032802D13E4802F06AF943480078CF
:104D9000022801D1FFF736FE40480078042805D3E9
:104DA0003F480088002801D1FFF7E4FE364800881C
:104DB000022837D135480021017036480088002884
:104DC0000DD135480021017034480078002803D007
:104DD00032480078012808D1FFF794FD05E02F48FC
:104DE000022101702A48002101802C480078032804
:104DF00002D1234802F034F928480078022801D172
:104E0000FFF700FE25480078042805D324480088D1
:104E1000002801D1FFF7AEFE1E480121018019488C
:104E20000121017018480088032827D11748002164
:104E3000017017480021018016480088002806D11B
:104E400016480321017014480021017002E0134844
:104E50000221017011480078022803D00F48007821
:104E6000032801D1FFF7CEFD0C480078042805D3B4
:104E70000B480088002801D1FFF77CFE00BD000030
:104E80008E0F00008F01002058010020812A002091
:104E9000602A002076010020822A0020802A00203B
:104EA0005E2A0020F0B483B0002001000020020040
:104EB000002003006848002505806848002505801B
:104EC0006A480088684D2D88401B78385FF480550B
:104ED0006843674D2D8802267543664E755B90FBCF
:104EE000F5F0D0F500600090604800885E4D2D8898
:104EF000401978385FF4805568435D4D2D8802264F
:104F000075435C4E755B90FBF5F0D0F50060019049
:104F10005648008878385FF480556843544D2D8892
:104F200002267543534E755B90FBF5F0D0F500609B
:104F30000290002001005FF480500904090C8142B6
:104F400029D200980904090C02254D434A4E755B8D
:104F5000A84203D2002B01D1012003000904090C4F
:104F600002204843444D285A019DA84211D2012BEA
:104F70000FD10020030038480088002806D13648A9
:104F80000180364801800020020002E033480180A1
:104F9000521C491CCFE71204120C002A50D00020EA
:104FA00004002D48008801002C4800880904090CE1
:104FB00081420BD20904090C022048432E4D285A85
:104FC000029DA84200D2641C491CEDE72B480078E2
:104FD00000283ED12C481204120C214D284E368850
:104FE00004277E43274FBE59B5FBF6F555431B4EAC
:104FF0003688194F3F88F61BB5FBF6F55FF47A76D5
:10500000754305602148154D2D88134E3688AD1B1C
:105010001B4E368804277E431A4FBE59754312042F
:10502000120CB5FBF2F5056019480E4D65430B4EA9
:105030003688094F3F88F61B95FBF6F5056008E0BA
:10504000114800250560114800250560104800251D
:10505000056003B0F0BC7047622A0020642A00207B
:1050600000CA9A3BA086010064010020B40200201F
:105070005A01002000000020DC0200207E2A0020CF
:105080005C01002054BD0008342500203825002094
:105090003C25002030B5E5480078002813D0E348CF
:1050A000E34909780170E34800880521E24A00FBE2
:1050B000012001B4DE4803785FF4FC62E0210320A4
:1050C00002F01EFE01B0DD480078002822D0DB4847
:1050D000D74909780170DA4800880B21D94A00FBCA
:1050E000012001B4D2480378D74AE021282002F0F9
:1050F00007FE01B0D54801210170D548012101709A
:10510000CF4800880006000E01F012FAD14800884E
:1051100001F0CAFAD048007800282AD0CE48C44905
:1051200009780170CD4800880C21CD4A00FB012090
:1051300001B4BF480378C44AE0216D2002F0E0FDCD
:1051400001B0C64800880C21C54A00FB012001B40B
:10515000B7480378BC4AE0216D2002F0D1FD01B0D0
:10516000BE4800880006000E01F05CFABD4801212F
:105170000170BD480078002821D0BB48AC490978AF
:105180000170BA4801B4AA480378B94AE021BA20AC
:1051900002F0B6FD01B002F0C1FBB648007800286D
:1051A00004D0AC48008801F097FF01E002F00EF94E
:1051B000A848008801F078FAAF4801210170AF4893
:1051C0000078002800F0B380AC4899490978017054
:1051D0009748007800280ED1A94800880821A94ADC
:1051E00000FB012001B40023A74AE021E72002F0E0
:1051F00087FD01B09BE0A2480088002804D0012868
:1052000035D0022866D092E0A048006800280ED170
:105210009B48008808219B4A00FB012001B4012320
:10522000994AE021E72002F06BFD01B07FE0042203
:10523000964801689648FFF785F8964801B47C487F
:105240000378914AE021E72002F05AFD01B090482E
:1052500000780421904A00FB012001B474480378CF
:10526000894AE0218D4802F04BFD01B05FE08C4897
:10527000006800280ED1824800880821814A00FB7E
:10528000012001B40123804AE021E72002F038FD2B
:1052900001B04CE00422824801687D48FFF752F8D3
:1052A0007C4801B462480378774AE021E72002F0A5
:1052B00027FD01B07648007803217A4A00FB0120DF
:1052C00001B45B480378704AE021744802F018FD8D
:1052D00001B02CE07448006800280ED168480088AE
:1052E0000821684A00FB012001B40123664AE0213D
:1052F000E72002F005FD01B019E004226A480168C8
:105300006348FFF71FF8634801B4494803785E4AD1
:10531000E021E72002F0F4FC01B064A001B44448AD
:105320000378594AE0215D4802F0EAFC01B0604888
:105330000078002827D05E483D490978017001F0C7
:10534000FDFA00280BD05B4801B400235A480288BC
:10535000E0215FF4927002F0D3FC01B013E05748F3
:1053600000880421564A00FB012001B40023534861
:1053700000880221484353490A5AE0215FF49270A1
:1053800002F0BEFC01B050480078002800F0B08068
:105390004D482749097801704CA001B4244803788E
:1053A000294AC3214A4802F0ABFC01B049480078C1
:1053B000062840F09D80484801B41D480378324AD1
:1053C0000221582002F09CFC01B04448444909885D
:1053D0000180434841490988891E01803F4800886F
:1053E00040490988401A3E490988884207DA02F094
:1053F00007F83B483A490988891E0180EEE738489A
:1054000036490988891C0180354800883349098854
:10541000344A12888918884266DA01F0F1FF304870
:105420002F490988891C0180EEE700BF8001002018
:105430007E2A00205801002068BF0008810100205A
:105440005A01002020BB0008FF0700009301002044
:1054500092010020B6020020820100205C010020A1
:105460004CBC00089001002083010020DCBA000839
:105470005EC00000C30200209401002084010020CF
:10548000600100207CBF0008FFFF000034250020E1
:10549000442500204625002038BF00080F010000E9
:1054A000382500202CBF00083C25002025200000C6
:1054B0008501002058BF000864BF00086201002079
:1054C00048BF00085CBF000886010020545200005D
:1054D0002F010000C4020020BCBA0008662A002088
:1054E000B4020020640100203A483B490988018049
:1054F0003A480078002839D038483949097801708D
:105500003848008800280AD137A001B4344803780D
:10551000364AAF21364802F0F3FB01B009E035A06E
:1055200001B42F480378314AAF21314802F0E8FB3B
:1055300001B031480078072818D12A48008800288F
:105540000AD12E4801B4264803782D4A022158205A
:1055500002F0D6FB01B009E02A4801B420480378E4
:10556000274A0221582002F0CBFB01B026480078E0
:10557000002860D024481A4909780170234800881F
:1055800000280AD122A001B415480378174A9B21AC
:10559000174802F0B5FB01B009E01EA001B41048A5
:1055A0000378124A9B21124802F0AAFB01B012486C
:1055B000007808283CD11548008800282ED11648CC
:1055C00001B4074803780E4A0221582002F098FBE4
:1055D00001B02DE0B4020020662A002087010020DF
:1055E0007E2A0020660100205E530000FF070000B5
:1055F0002F0100005F530000C4020020ACBA000875
:10560000FFFF00009CBA000888010020680100200C
:105610002A3100003130000084BA0008E24801B4A9
:10562000E2480378E24A0221582002F069FB01B007
:10563000E04801210170E0480078002836D0DE48BB
:10564000DA4909780170DDA001B4D8480378DC4A52
:105650008721DC4802F054FB01B0DB4800780928C0
:1056600024D1DA4801880906090ED948FEF764FFFB
:10567000D84801B4CD480378CD4A0221582002F021
:105680003FFB01B0D24801B4C8480378C84A0221A0
:10569000A42002F035FB01B0CFA001B4C3480378C9
:1056A000C34A0221BC2002F02BFB01B0CB4800789A
:1056B000002836D0C948BD4909780170C8A001B496
:1056C000BA480378BE4A7321BE4802F019FB01B004
:1056D000BD4800780A2824D1C24801880906090E6D
:1056E000BB48FEF729FFC04801B4B0480378B04A70
:1056F0000221582002F004FB01B0B54801B4AB48C8
:105700000378AB4A0221A42002F0FAFA01B0B2A059
:1057100001B4A6480378A64A0221BC2002F0F0FAA0
:1057200001B0B248007800284ED0B0489F490978AF
:105730000170AF48AF49098804225143AE4A51581D
:105740000160AE48AB49098804225143AC4A515824
:105750000160AC48A749098804225143A84A51581E
:10576000491C49080160A8A001B490480378944AF4
:105770005F21944802F0C4FA01B0934800780B28E6
:1057800022D1A24801B489480378894A02215820CD
:1057900002F0B6FA01B09748008807219C4A00FB46
:1057A000012001B481480378814A02218C2002F053
:1057B000A7FA01B088A001B47C4803787C4A022192
:1057C000BC2002F09DFA01B092480078002827D052
:1057D00090487649097801708FA001B47348037826
:1057E000774A4B21774802F08BFA01B0764800786F
:1057F0000C2815D1894801B46C4803786C4A022101
:10580000582002F07DFA01B085480078002803D1C5
:105810008448008801F022FE8248008802F088F95E
:1058200081480078002827D07F48604909780170B6
:105830007EA001B45D480378614A3721614802F0D7
:105840005FFA01B0604800780D2815D1784801B49E
:1058500056480378564A0221582002F051FA01B006
:105860006F480078002803D16E48008801F0F6FDEB
:105870006C48008802F05CF96E48007800281BD064
:105880006C484A49097801706BA001B44748037815
:105890004B4A23214B4802F033FA01B04A480078C2
:1058A0000E2809D1654801B440480378404A0221D6
:1058B000582002F025FA01B06148007800281CD079
:1058C0005F48002101705F48008800280BD15E48C6
:1058D00001B400235FF4FC6202215FF48E7002F0D9
:1058E0000FFA01B009E0594801B400231F22022138
:1058F0005FF48E7002F004FA01B055480078002879
:1059000042D0534800210170032252480088454983
:105910000988411A50480088042358434F4B1858AF
:1059200041434F48FEF714FC4EA001B40023244A23
:105930000221C72002F0E4F901B04B4801B4002372
:105940001F4A0221E02002F0DBF901B022A001B4DD
:1059500000231B4A02214548007808256843E030AF
:105960000004000C02F0CCF901B03D48007803219E
:105970003F4A00FB012001B40023114A02215FF4D9
:10598000847002F0BDF901B03A480078002800F0B8
:10599000CB8038480549097801700B4800781128F8
:1059A0006AD0002004006AE074BA00087E2A002051
:1059B000FFFF000081010020890100204653000004
:1059C000FF0700002F010000C40200206A01002030
:1059D0009801002068BA0008200000008A01002019
:1059E000464C00006C01002014BB00088B01002015
:1059F000280800406E010020A0BE00082C080040CE
:105A0000E0BE000834080040466F00000CBB0008F0
:105A100030BE00088C01002054320000CCBA0008CF
:105A2000772A0020BE0200208D01002054310000A2
:105A3000FCBA00088E01002054300000ECBA0008C7
:105A40008F01002076010020E4BA000894BA000813
:105A500090010020C00200205C01002054BD00081D
:105A6000442500205B543D004625002045250020AC
:105A70002CBF000891010020CA4800780400CA48E1
:105A80000078062803D3C84800780F284CD3032297
:105A9000C6480088C6490988411AC64800880423B8
:105AA0005843C54B18584143C448FEF751FBC4A0A6
:105AB00001B40023C34A0221582002F021F901B0A9
:105AC000C1A001B40023BF4A0221692002F018F9E5
:105AD00001B0BEA001B423001B061B0EB94A02216F
:105AE000722002F00DF901B0B9A001B40023B54A4B
:105AF0000221832002F004F901B0B64801B400236A
:105B0000B04A02218B2002F0FBF801B0AB480078CC
:105B10000321B14A00FB012001B40023A94A02215C
:105B2000B32002F0EDF801B0AC480078002850D066
:105B3000AA489C49097801709B480078122802D035
:105B40000020040002E0974800780400964800789E
:105B5000062803D3944800780F283AD303229348A9
:105B6000008893490988411A9248008804235843C1
:105B7000914B185841439148FEF7EAFA90A001B4BE
:105B800023001B061B0E8F4A0221582002F0B8F892
:105B900001B08DA001B400238A4A0221692002F0DD
:105BA000AFF801B08B4801B40023864A02218B2054
:105BB00002F0A6F801B0814800780321864A00FB74
:105BC000012001B400237F4A0221B32002F098F89B
:105BD00001B08348007800284BD08148714909788A
:105BE00001708048012101706F480078132802D0AD
:105BF0000020040002E06B480078040003227A4889
:105C000000887A490988411A6A4800880423584361
:105C1000694B185841436948FEF79AFA74A001B4D9
:105C200023001B061B0E734A0221032002F068F8B2
:105C300001B067A001B400236E4A0221142002F0D3
:105C40005FF801B0634801B400236A4A02211C20B6
:105C500002F056F801B05948007803215E4A00FB73
:105C6000012001B40023634A0221442002F048F8D5
:105C700001B06148007800283AD060485A49098844
:105C8000018059485D490988891E0180564800886D
:105C90005A4909885A4A1288891A884209DB5248A7
:105CA000008801F019FA50484F490988891E01807F
:105CB000ECE74D4851490988891C01804F4800880C
:105CC0004F490988401848490988884209DB4648F5
:105CD000008801F001FA444843490988891C018081
:105CE000ECE741484549098801804348002101709B
:105CF0003C480078002853D03A48002101704148C0
:105D00000078002804D04048008801F0E7FA03E05A
:105D10003D48008801F0A2FB3C480078002804D0F0
:105D20003B48008801F0DAFA03E03948008801F0C6
:105D300095FB38480078002804D01C48008801F002
:105D400051FA03E01948008801F072FB32480078EC
:105D5000002804D01648008801F044FA03E01448F3
:105D6000008801F065FB2D480078002804D01E480B
:105D7000008801F0B1F901E001F042FB01F028FEDA
:105D80000A48008801F07CFE0948008801F078FE8E
:105D90001D48008801F0CCFE1D48008801F0C8FEB7
:105DA00030BD00BF7E2A0020C4020020B8020020BF
:105DB000BA0200205A010020FCBB00084425002044
:105DC00056310000FFFF00002D0000005632000099
:105DD0003D0000004625002020BF00089201002061
:105DE0009301002094010020B4020020B60200209C
:105DF00056740000FF070000C2020020662A00203F
:105E000064010020772A0020BE020020782A0020AA
:105E1000C0020020752A0020762A0020742A002063
:105E200000B503F035FD5FF4803003F075FD03F03D
:105E30009BFD2249087021480078012828D11020B4
:105E400003F0D0FB022003F0C1FB002003F0D8FDDB
:105E5000002003F0EFFD5FF4806003F0DDFD5FF4F0
:105E6000804003F0FBFD5FF4E0115FF4803003F04D
:105E70009DFD012003F0AAFD392003F02FFE00282C
:105E8000FAD0022003F0AAFD03F0B4FD0828FBD1EC
:105E90000121012003F0F2FD0121094803F0FEFD7C
:105EA0000121084803F00AFE002003F0D1FD012182
:105EB0005FF4000003F002FE00BD00BF842A002052
:105EC0007D0E00000740000000B581B05FF4804106
:105ED0005FF0006003F0D0FC5FF4C06003F05AFC98
:105EE00014208DF8000001208DF8010000208DF8AD
:105EF000020001208DF80300684603F053FC1320D4
:105F00008DF8000000208DF8010000208DF80200BF
:105F100001208DF80300684603F044FC1B208DF837
:105F2000000001208DF8010000208DF80200012002
:105F30008DF80300684603F035FC1D208DF8000045
:105F400001208DF8010000208DF8020001208DF85D
:105F50000300684603F026FC0C208DF800000120A9
:105F60008DF8010000208DF8020001208DF803005B
:105F7000684603F017FC01B000BD0000184819493D
:105F8000016019481949016019481A4901601A4805
:105F90001A4901601A481B4901601B4815490160F4
:105FA0001A481B4901601B481B4901601B481149E5
:105FB00001601B481B4901601B481C4901601C48CB
:105FC0001C4901601C485FF0333101601B485FF0E1
:105FD000333101601A485FF490510160704700BF8F
:105FE0000008014080808888040801408B4884882C
:105FF0000C080140FFFF0000000C0140118488885C
:10600000040C014088B4B1BB0C0C014000100140ED
:106010008188118404100140848888880C10014014
:1060200000140140388833380414014084888B8878
:106030000C1401407FFF00000018014004180140CB
:106040000400014000B585B00020ADF800005FF409
:106050008270ADF802000020ADF804000220ADF817
:1060600006000120ADF808005FF40070ADF80A00EA
:106070000820ADF80C000020ADF80E000720ADF8A8
:1060800010006946044803F05FFD0121024803F057
:1060900079FD05B000BD0000003800400D4800212A
:1060A00001600D480021016011485FF45651016004
:1060B0000C485FF4805101600848094901600A48B2
:1060C0000A4901600A480A49096851F00101016062
:1060D000704700BF00000240040002401000024070
:1060E0004C2401400C00024014000240DC0200205D
:1060F000080002402A48002101602A48002101606E
:1061000029485FF480110160284829490160294825
:106110000021016028480021016028480421016015
:1061200027480021016027485FF48051016026481C
:10613000002101601D481D49096851F001010160FD
:1061400019481949096851F00101016017481749B8
:10615000096851F008010160144800680007FBD489
:1061600011481149096851F0080101600E480068A2
:106170000007FBD40D480D49096851F00401016086
:106180000A4800684007FBD407480749096851F0EE
:1061900004010160044800684007FBD4704700BF59
:1061A000042801400424014008280140082401403B
:1061B000000110002C2801402C240140342801400B
:1061C00034240140102801401024014000B53C480F
:1061D00000880006000E00F025FA3A48942101607C
:1061E000394800210160394801210160384878218F
:1061F000016038485FF40041016037485FF4844132
:10620000016030482F49096851F0010101603348AD
:10621000002101603248334901603348008800F0B2
:1062200043FA5FF080408421016030485FF44051C0
:1062300001602F485FF4F84101605FF080405FF03B
:106240008041096851F0010101602A48092101607B
:1062500029482A4901602A485FF4616101602948A0
:1062600084210160284802210160264825490968E7
:1062700051F00101016025480721016024482549AA
:10628000098804225143244A515801602348214976
:10629000098804225143204A5158491C4908016089
:1062A0001F48842101601F48012101601E48782198
:1062B00001601B481A49096851F00101016000BDE5
:1062C0005C010020002C0140302C0140202C0140BA
:1062D000182C0140442C01400C2C014028000040A7
:1062E0002C000040FF0E0000B602002020000040FD
:1062F0001C000040280400402C0400401F1C00002B
:1063000034040040000400400C0400402808004011
:106310002C0800406E010020E0BE00083408004058
:1063200000080040200800401808004000B5002286
:106330001100002210003D4A1268D343DA0601D54D
:1063400051F001013D4A1268D3431A0501D551F0BD
:106350000201364A1268D3435A0601D551F00401AE
:10636000364A1268D3439A0501D551F008012F4AE5
:106370001268D3439A0601D551F010012B4A1268D6
:10638000D3431A0601D551F02001294A1278D3438C
:1063900019421BD0274A19231370CA0701D50122BD
:1063A00010008A0701D5022210004A0701D50322F6
:1063B00010000A0701D504221000CA0601D50522E3
:1063C00010008A062ED5062210002BE0184A1278FB
:1063D000114224D0174A1278174B1B7813431B061F
:1063E0001B0E002B1ED1CA0701D5012210008A07FF
:1063F00001D5022210004A0701D5032210000A0726
:1064000001D504221000CA0601D5052210008A0613
:1064100001D506221000084A0323137002E0054A42
:1064200019231370024A117000BD00BF0808014013
:10643000832A00207C2A00207B2A002008140140A7
:1064400010B504000221184803F0AEFB0028F9D073
:106450002406240E21000904090C134803F0A0FBB4
:106460008021114803F0A0FB0028F9D010BD0000E6
:1064700010B50020040002210B4803F095FB002812
:10648000F9D0FF21084803F08BFB0121064803F0F7
:106490008BFB0028F9D0044803F084FB04002000A3
:1064A0000006000E10BD0000003800401B4909889E
:1064B0000904090C7B225143891208001849194A22
:1064C000126892090A601749164A12681218144B8A
:1064D0001B68D21A0A60144901220A70104909681F
:1064E000B1F5B47F03D9114903220A8014E00C49A5
:1064F0000968B1F5AA7F03D90C4902220A800BE092
:1065000007490968B1F5A07F03D9084901220A802B
:1065100002E0064900220A80704700BF4E24014075
:10652000402500209C010020850100206201002000
:1065300000B50006000E0100002903290FD9091F2C
:10654000022919D9C91E022923D9C91E02292DD908
:10655000C91E022937D9C91E022941D94DE02D494A
:1065600001220A602C4920220A602B4910220A606D
:10657000284902220A604CE0264901220A60264985
:1065800020220A60244910220A60244902220A605B
:106590003FE0224901220A601F4920220A601E4969
:1065A00010220A601D4902220A6032E019490122C4
:1065B0000A601B4920220A60174910220A60174905
:1065C00002220A6025E0154901220A6014492022AE
:1065D0000A60114910220A60104902220A6018E07C
:1065E0000C4901220A600C4920220A600C49102241
:1065F0000A600A4902220A600BE0084901220A6087
:10660000074920220A60064910220A600349022233
:106610000A6000BD100C014010100140140C014034
:10662000141001400E490006000E022242430D4B99
:106630009A5A0A600C490006000E022242430B4B94
:106640009A5A0A600A490006000E02224243074B8A
:106650009A5A521C022392FBF3F20A60704700BF61
:10666000282C0140ACBD00082C2C0140D8BD0008EE
:10667000342C01400B4800210160074807490160A4
:1066800007485FF48051016006480649096851F0E7
:10669000010101607047000014000240DC0200208C
:1066A0000C0002400800024000B5A04909880029FA
:1066B00030D001293CD0022948D0032954D00429E4
:1066C0005FD005296BD0062977D0072900F082809A
:1066D000082900F08D80092900F098800A2900F02F
:1066E000A2800B2900F0AD800C2900F0B8800D29A4
:1066F00000F0C2800E2900F0CD800F2900F0D88074
:10670000102900F0E380112900F0EE80122900F03A
:10671000F98005E18649F0220004000C121A1423C6
:106720005A43202392FBF3F202F271320A60FBE03B
:106730007F49F0220004000C121A2A235A43202316
:1067400092FBF3F202F21F320A60EDE07849F02288
:106750000004000C121A68235A43202392FBF3F220
:1067600002F236220A60DFE07149F0220004000CD8
:10677000121ACF235A43202392FBF3F2B4320A6059
:10678000D2E06B49F0220004000C121A37235A435E
:10679000202392FBF3F202F2EE220A60C4E0644985
:1067A000F0220004000C121A8A235A43202392FB81
:1067B000F3F202F2B7120A60B6E05D49F02200047B
:1067C000000C121A5B4B5A43202392FBF3F24B3A14
:1067D0000A60A9E05649F0220004000C121A352381
:1067E0005A43202392FBF3F202F2F6220A609BE066
:1067F0004F49F0220004000C121A84235A4320232C
:1068000092FBF3F202F2CD120A608DE04849F022C9
:106810000004000C121A484B5A43202392FBF3F257
:10682000253A0A6080E04249F0220004000C121A66
:106830002A235A43202392FBF3F202F21F320A600A
:1068400072E03B49F0220004000C121A69235A43FB
:10685000202392FBF3F202F233220A6064E034490F
:10686000F0220004000C121AD4235A43202392FB76
:10687000F3F2A1320A6057E02D49F0220004000C27
:10688000121A39235A43202392FBF3F202F2E72231
:106890000A6049E02649F0220004000C121A8E23F7
:1068A0005A43202392FBF3F202F2A8120A603BE063
:1068B0001F49F0220004000C121A5FF48E735A4331
:1068C000202392FBF3F26D3A0A602DE01849F02282
:1068D0000004000C121A3B235A43202392FBF3F2CC
:1068E00002F2DF220A601FE01149F0220004000CCE
:1068F000121A92235A43202392FBF3F202F29912C6
:106900000A6011E00A49F0220004000C121A5FF438
:1069100093735A43202392FBF3F2923A0A6003E006
:1069200003495FF46F720A6000BD00BF5A01002086
:106930004000004013010000090100000348006806
:10694000400501D5012000E000207047080C0140FF
:1069500003480068400501D5012000E00020704791
:1069600008140140954A0004000C1060944A022368
:1069700013602022924B1A60924B1A60914A0223B4
:1069800013608E4A0904090C116020228C4B1A6096
:106990008C4B1A607047000000B55FF033306949D6
:1069A00008606949086087482021016085481021F6
:1069B00001608448022101606448012101600120D6
:1069C000FDF796FF6248012101600120FDF790FF6D
:1069D0005E48012101600520FDF78AFF0121FF20AB
:1069E000FFF7C0FF0821F320FFF7BCFF7348F32136
:1069F00001607348022101602020714908607149DB
:106A000008607048022101605FF480710120FFF787
:106A1000A9FF5FF4E0610220FFF7A4FF302103200B
:106A2000FFF7A0FF4B490820FFF79CFF002109203A
:106A3000FFF798FF00210A20FFF794FF5FF4F2614F
:106A40001020FFF78FFF05211120FFF78BFF00219A
:106A50001220FFF787FF00211320FFF783FF642038
:106A6000FDF746FF3C491020FFF77CFF3220FDF781
:106A70003FFF07211120FFF775FF3220FDF738FF98
:106A80008C211220FFF76EFF5FF4B8511320FFF73F
:106A900069FF1A212920FFF765FF3220FDF728FF43
:106AA00000213020FFF75EFF2C493120FFF75AFF0D
:106AB00003213220FFF756FF5FF400713520FFF706
:106AC00051FF5FF483713620FFF74CFF0021372020
:106AD000FFF748FF21493820FFF744FF5FF4827138
:106AE0003920FFF73FFF5FF400713C20FFF73AFFCA
:106AF00005213D20FFF736FF00215020FFF732FF30
:106B0000EF215120FFF72EFF00215220FFF72AFF2F
:106B100014495320FFF726FF5FF427416020FFF759
:106B200021FF01216120FFF71DFF33219020FFF796
:106B300019FF0B490720FFF715FF3220FDF7D8FE9C
:106B400000BD00BF041001400018014010100140BA
:106B50001410014002030000B012000007050000FD
:106B6000330100003F01000030B504000D00290092
:106B70002020FFF7F7FE21002120FFF7F3FE0F484A
:106B8000222101600E480221016020200C4908608A
:106B90000C49086020200A4908600A490860094831
:106BA0000221016030BD000004490004000C0860AF
:106BB0002021034A1160034A116070470C180140FC
:106BC000141401401014014030B5040000210020CD
:106BD000FFF7CAFF00200500B5F5963F04D220005C
:106BE000FFF7E2FF6D1CF7E730BD000030B5002075
:106BF00004005FF4A0702404240C844212D200210B
:106C000020000004000CFFF7AFFF002005002D045A
:106C10002D0C122D04D21148FFF7C6FF6D1CF6E7AC
:106C2000641CE6E7002004005FF4A0702404240C38
:106C3000844212D2DE2120000004000CFFF794FFF2
:106C4000DE2005002D042D0CF02D04D20348FFF7A3
:106C5000ABFF6D1CF6E7641CE6E730BDE0FF00000B
:106C600030B5132005002D042D0CDC2D16D201208B
:106C700004005FF497702404240C84420CD2290091
:106C80000904090C20000004000CFFF76DFFDA482E
:106C9000FFF78AFF641CECE71935E4E701200400E4
:106CA0005FF497702404240C844212D21321200034
:106CB0000004000CFFF758FF132005002D042D0CD5
:106CC000DC2D04D2CC48FFF76FFF6D1CF6E71934BA
:106CD000E6E7062004002C482404240C844225D234
:106CE000142120000004000CFFF73EFFC248FFF70C
:106CF0005BFFDA2120000004000CFFF735FFBE48DF
:106D0000FFF752FF782120000004000CFFF72CFF52
:106D1000B948FFF749FF762120000004000CFFF777
:106D200023FFB548FFF740FF641DD4E71820050096
:106D30002D042D0CDB2D26D229000904090C02207C
:106D4000FFF712FFAC48FFF72FFF29000904090CD9
:106D50005FF49670FFF708FFA748FFF725FF2900AB
:106D60000904090C9820FFF7FFFEA348FFF71CFF5A
:106D700029000904090C9620FFF7F6FE9E48FFF74C
:106D800013FF6D1DD4E730BD2D010000F0B581B0BB
:106D900007000C001500ADF800502D042D0CA54285
:106DA00003D22500BDF8000004002D042D0CDB2DBE
:106DB00001D3DA200500142C01D21420040026008F
:106DC0002D042D0C3604360CB542C0F0088131007C
:106DD0000904090C3800401C0004000CFFF7C4FE35
:106DE0000020FFF7E1FE3604360C752E17D336046B
:106DF000360C7A2E13D23F043F0C3800052104F0E4
:106E0000BDFC00280BD131000904090C3800401CDE
:106E10000004000CFFF7A8FE7748FFF7C5FE942F8B
:106E200016D3992F14D23604360C300013380521AE
:106E300004F0A4FC00280BD131000904090C38002F
:106E4000401C0004000CFFF78FFE6B48FFF7ACFE00
:106E50003604360C30001338192104F08FFC00285A
:106E60000BD131000904090C3800401C0004000C4F
:106E7000FFF77AFE6048FFF797FE3F043F0C3800AB
:106E8000192104F07BFC00280BD131000904090C06
:106E90003800401C0004000CFFF766FE5648FFF760
:106EA00083FECD4801883F043F0C3800401C8142DE
:106EB00018D14C480078002814D13604360C300024
:106EC0001338032104F05AFC00280BD131000904C7
:106ED000090C3800401C0004000CFFF745FEC048B8
:106EE000FFF762FEBD4801883F043F0C3800401C9C
:106EF000814218D13C480078002814D13604360C61
:106F000030001338032104F039FC00280BD1310084
:106F10000904090C3800401C0004000CFFF724FE93
:106F2000AF48FFF741FE31480078002819D1A84842
:106F300000883604360CB04213D13F043F0C3800B1
:106F4000052104F01BFC00280BD131000904090CB9
:106F50003800401C0004000CFFF706FEA048FFF7B5
:106F600023FE23480078002819D19A480088360467
:106F7000360CB04213D13F043F0C3800052104F019
:106F8000FDFB00280BD131000904090C3800401C1E
:106F90000004000CFFF7E8FD9148FFF705FE1548D7
:106FA0000078002819D1CB4800883604360CB0424E
:106FB00013D13F043F0C3800022104F0DFFB00280E
:106FC0000BD131000904090C3800401C0004000CEE
:106FD000FFF7CAFDC048FFF7E7FD761CF0E601B0F9
:106FE000F0BD00BF772A0020782A0020752A0020F3
:106FF000762A0020742A00208E7300002DE9F041CB
:1070000081B080460C0015001E00ADF800502D0424
:107010002D0CA54203D22500BDF8000004002D046C
:107020002D0CDB2D01D3DA200500142C01D2142005
:10703000040021004046401C0004000CFFF794FDB2
:1070400027002D042D0C3F043F0CBD4204D330001B
:10705000FFF7AAFD7F1CF4E701B0BDE8F081000056
:10706000F0B504001B48844203D11848007806009C
:1070700002E0174800780600002005005FF49670D3
:107080002D042D0C85421FD21248844205D12D04B7
:107090002D0C0E48405D070004E02D042D0C0C481B
:1070A000405D07003F063F0E3A001204120C360600
:1070B000360E31000904090C28000004000CFFF70B
:1070C00065FE3E006D1CD9E7F0BD00BF082400201E
:1070D000280000208E0F000030B5040001200500BC
:1070E000C6482D042D0C854271D2210028000004D1
:1070F000000CFFF739FD2404240C2000133819215B
:1071000004F03CFB002807D02D042D0C681E19212B
:1071100004F034FB002803D1A848FFF745FD54E0F4
:10712000782C01D0762C0BD12D042D0C681E052156
:1071300004F024FB002803D1A048FFF735FD44E00C
:107140002D042D0C982D03D02D042D0C962D0CD133
:107150002404240C20001338052104F00FFB002820
:1071600003D19648FFF720FD2FE01948008884429C
:1071700003D01848008884420BD12D042D0C681EC2
:10718000052104F0FBFA002803D11548FFF70CFD98
:107190001BE0114800882D042D0C854205D00F48B6
:1071A00000882D042D0C85420CD12404240C2000D1
:1071B0001338032104F0E2FA002803D10848FFF74E
:1071C000F3FC02E00020FFF7EFFCAD1C88E730BDC8
:1071D000B8020020BA020020BE020020C002002037
:1071E000FFFF000030B504000120050083482D0496
:1071F0002D0C85426DD2210028000004000CFFF701
:10720000B3FC2404240C20001338192104F0B6FA2E
:10721000002807D02D042D0C681E192104F0AEFAA9
:10722000002803D16548FFF7BFFC50E0782C01D05F
:10723000762C0BD12D042D0C681E052104F09EFA2E
:10724000002803D15D48FFF7AFFC40E02D042D0C72
:10725000982D03D02D042D0C962D0CD12404240C34
:1072600020001338052104F089FA002803D153487F
:10727000FFF79AFC2BE01748008884420BD12D04BD
:107280002D0C681E022104F079FA002803D112485F
:10729000FFF78AFC1BE0474800882D042D0C85422F
:1072A00005D0454800882D042D0C85420CD12404BE
:1072B000240C20001338032104F060FA002803D1C5
:1072C0004148FFF771FC02E00020FFF76DFC6D1DE7
:1072D0008CE730BDB4020020FF07000030B5040089
:1072E0003448008834490988884262D01620050055
:1072F0002D042D0CDB2D5CD229000904090C200083
:10730000FFF732FC2404240C601E192104F036FA25
:10731000002808D02D042D0C28001338192104F062
:107320002DFA002803D12548FFF73EFC3FE0982CBA
:1073300001D0962C0CD12D042D0C280013380521DA
:1073400004F01CFA002803D11C48FFF72DFC2EE0A6
:107350002D042D0C782D03D02D042D0C762D0BD162
:107360002404240C601E052104F008FA002803D12F
:107370001248FFF719FC1AE0114800882D042D0C63
:10738000854205D00F4800882D042D0C85420BD175
:107390002404240C601E052104F0F0F9002803D118
:1073A0000948FFF701FC02E00020FFF7FDFBED1CA0
:1073B0009EE730BDBE020020C00200208E73000098
:1073C000B8020020BA020020FFFF000010B5032021
:1073D00004000A482404240C84420BD27548018816
:1073E00020000004000CFFF7BFFB0348FFF7DCFBA5
:1073F000A41CEEE710BD00BF5EC000002D01000020
:1074000010B503200400B7482404240C84420BD296
:10741000B548018820000004000CFFF7A5FB0348D5
:10742000FFF7C2FBA41CEEE710BD0000FF07000041
:1074300030B5040006200500AA482D042D0C854215
:107440000AD2210028000004000CFFF78DFB0D4834
:10745000FFF7AAFB6D1DEFE730BD000030B504005B
:10746000162005002D042D0CDB2D0AD2290009045D
:10747000090C2000FFF778FB0248FFF795FBED1C95
:10748000F0E730BD9FE7000000B54A480188891E3B
:107490000904090C0020FFF767FB0020FFF784FBBD
:1074A00044480188891C0904090C0020FFF75CFB93
:1074B0000020FFF779FB3F480188891E0904090C69
:1074C0005FF49770FFF750FB0020FFF76DFB394822
:1074D0000188891C0904090C5FF49770FFF744FBCD
:1074E0000020FFF761FB33480188491E0904090C9D
:1074F0000120FFF739FBC448FFF756FB2D480188F0
:10750000491C0904090C0120FFF72EFBBE48FFF7B8
:107510004BFB28480188491E0904090C7148FFF7F4
:1075200023FBB948FFF740FB22480188491C0904A6
:10753000090C6C48FFF718FBB348FFF735FB1D48F3
:1075400001880220FFF710FB1A4800881338192120
:1075500004F014F9002807D01648008813380521D4
:1075600004F00CF9002803D1A748FFF71DFB02E047
:107570000020FFF719FB0F4801885FF49670FFF7B2
:10758000F3FA0C4800881338192104F0F7F80028A2
:1075900007D0084800881338052104F0EFF80028C8
:1075A00003D19948FFF700FB02E00020FFF7FCFA47
:1075B00000BD0000B602002000B54B480188891EBE
:1075C0000904090C0020FFF7CFFA0020FFF7ECFABE
:1075D00045480188891C0904090C0020FFF7C4FAFA
:1075E0000020FFF7E1FA40480188891E0904090CD0
:1075F0005FF49770FFF7B8FA0020FFF7D5FA3A4822
:107600000188891C0904090C5FF49770FFF7ACFA34
:107610000020FFF7C9FA34480188491E0904090C03
:107620000120FFF7A1FA7848FFF7BEFA2E4801883B
:10763000491C0904090C0120FFF796FA7248FFF76C
:10764000B3FA29480188491E0904090C2548FFF7A7
:107650008BFA6D48FFF7A8FA23480188491C0904F2
:10766000090C2048FFF780FA6748FFF79DFA1E488B
:1076700001880220FFF778FA1B4800881338192187
:1076800004F07CF8002807D017480088133805213B
:1076900004F074F8002803D15B48FFF785FA02E094
:1076A0000020FFF781FA104801885FF49670FFF719
:1076B0005BFA0D4800881338192104F05FF80028A0
:1076C00007D0094800881338052104F057F800282E
:1076D00003D14D48FFF768FA02E00020FFF764FA93
:1076E00000BD00002D010000B402002010B5040010
:1076F000A11E0904090C0020FFF736FA0020FFF74D
:1077000053FA2100891C0904090C0020FFF72CFA08
:107710000020FFF749FAA11E0904090C5FF49770D5
:10772000FFF722FA0020FFF73FFA2100891C090425
:10773000090C5FF49770FFF717FA0020FFF734FA8F
:10774000611E0904090C0120FFF70EFA2E48FFF70D
:107750002BFA2100491C0904090C0120FFF704FA47
:107760002948FFF721FA611E0904090C2548FFF793
:10777000FBF92548FFF718FA2100491C0904090CF8
:107780002048FFF7F1F92048FFF70EFA2100022008
:10779000FFF7EAF92404240C20001338192103F020
:1077A000EDFF002808D02404240C20001338052104
:1077B00003F0E4FF002803D11348FFF7F5F902E0D6
:1077C0000020FFF7F1F921005FF49670FFF7CCF984
:1077D0002404240C20001338192103F0CFFF0028C3
:1077E00008D02404240C20001338052103F0C6FF20
:1077F000002803D10448FFF7D7F902E00020FFF783
:10780000D3F910BD2D0100008E73000010B50400E7
:107810001221A01E0004000CFFF7A6F90020FFF7BC
:10782000C3F912212000801C0004000CFFF79CF912
:107830000020FFF7B9F9DC21A01E0004000CFFF7BF
:1078400093F90020FFF7B0F9DC212000801C000430
:10785000000CFFF789F90020FFF7A6F91321601E3D
:107860000004000CFFF780F92B48FFF79DF9132166
:107870002000401C0004000CFFF776F92648FFF7B3
:1078800093F9DB21601E0004000CFFF76DF922481C
:10789000FFF78AF9DB212000401C0004000CFFF7F1
:1078A00063F91D48FFF780F914212000FFF75CF908
:1078B0002404240C601E192103F060FF002807D067
:1078C0002404240C601E052103F058FF002803D176
:1078D0001148FFF769F902E00020FFF765F9DA21A6
:1078E0002000FFF741F92404240C601E192103F045
:1078F00045FF002807D02404240C601E052103F056
:107900003DFF002803D10448FFF74EF902E00020B4
:10791000FFF74AF910BD00008E73000030B500205B
:1079200004002404240C032C20D227480088801E45
:1079300001190904090C20000004000CFFF714F9D8
:1079400021480088801E001905002D042D0C1E48BA
:107950000088C01C2404240C001B854204DA1B4848
:10796000FFF722F96D1CF0E7641CDAE75FF496700C
:1079700004006B482404240C844224D2124800885A
:10798000001B6849411A0904090C20000004000C7E
:10799000FFF7EAF80C480088001B6349401A801E74
:1079A00005002D042D0C084800882404240C00191F
:1079B0005E494018854204DA0448FFF7F5F86D1C6B
:1079C000EFE7641CD5E730BDB60200208E0F000043
:1079D00030B5002004002404240C032C20D22748B6
:1079E0000088801E01190904090C20000004000C05
:1079F000FFF7BAF821480088801E001905002D0401
:107A00002D0C1E480088C01C2404240C001B854239
:107A100004DABA48FFF7C8F86D1CF0E7641CDAE72F
:107A20005FF4967004003E482404240C844224D25F
:107A300012480088001B3B49411A0904090C200028
:107A40000004000CFFF790F80C480088001B364932
:107A5000401A801E05002D042D0C084800882404BF
:107A6000240C001931494018854204DAA348FFF775
:107A70009BF86D1CEFE7641CD5E730BDB402002015
:107A800070B50400002005002D042D0C032D1DD21F
:107A9000A01E41190904090C28000004000CFFF77E
:107AA00063F8A01E401906003604360C2404240C8A
:107AB0002000C01C2D042D0C401B864204DA8E4889
:107AC000FFF772F8761CEFE76D1CDDE75FF4967048
:107AD000050013482D042D0C854220D2601B11494E
:107AE000411A0904090C28000004000CFFF73CF8B7
:107AF000601B0D49401A801E06003604360C240413
:107B0000240C2D042D0C601908494018864204DA13
:107B10007948FFF749F8761CEFE76D1CD9E770BD8F
:107B20002F010000D4FE0000D3FE0000D4FEFFFFB2
:107B300070B50400122006003604360C152E1CD237
:107B4000A019143805002D042D0C2404240C200049
:107B500015303604360C801B85420CDA31000904DE
:107B6000090C28000004000CFEF7FEFF6248FFF736
:107B70001BF86D1CE7E7761CDEE7DA20060036040A
:107B8000360CDD2E1DD2A01B0E49401A401E0500EA
:107B90002D042D0C2404240C3604360CA019D938DD
:107BA00085420CDA31000904090C28000004000C9D
:107BB000FEF7DAFF5048FEF7F7FF6D1CE8E7761C8A
:107BC000DDE770BD25FF000010B5032004005FF461
:107BD00096702404240C84423FD215212000000416
:107BE000000CFEF7C1FF2404240C601E192103F0D1
:107BF000C5FD00280CD11948FEF7D6FF1748FEF73F
:107C0000D3FF1648FEF7D0FF1448FEF7CDFF22E061
:107C10002404240C601E942811DB2404240C601E10
:107C200099280CDA0020FEF7BFFF0020FEF7BCFF0A
:107C30000020FEF7B9FF0948FEF7B6FF0BE0002071
:107C4000FEF7B2FF0020FEF7AFFF0020FEF7ACFF0B
:107C50000020FEF7A9FF641CB9E710BD8E73000079
:107C600030B5224800882249098840182149401827
:107C70005FF4967148430013401C05000320040084
:107C80005FF496702404240C84422ED21521200027
:107C90000004000CFEF768FF2D042D0C2404240CB6
:107CA000A54214D22404240C2D042D0C28001630D7
:107CB00084420CDA1048FEF777FF0F48FEF774FF96
:107CC0000D48FEF771FF0C48FEF76EFF0BE0002039
:107CD000FEF76AFF0948FEF767FF0848FEF764FFF2
:107CE0000020FEF761FF641CCAE730BDBC02002023
:107CF0007401002000F0FFFF9FE70000FF07000075
:107D00002DE9F04781B08046894692461C004946DD
:107D100040460004000CFEF727FF00200600360452
:107D200036140E2E0BDA002C02D10020FEF73CFF99
:107D3000012C02D15046FEF737FF761CEFE708F220
:107D4000010809980078002874D03C4809990978FE
:107D500010223B4B01FB0231081800900020070065
:107D60003F043F14082F58DA49464046C019000422
:107D7000000CFEF7F9FE09980078202803D0099836
:107D80000078212802D10020050006E03F043F14BE
:107D9000022078430099085A0500099800782128A4
:107DA00003D13F043F14042F37D0002006003604CF
:107DB00036140E2E2FDA680714D5002C02D1504647
:107DC000FEF7F2FE012C02D10020FEF7EDFE022CA0
:107DD00002D15046FEF7E8FE032C17D10020FEF733
:107DE000E3FE13E0002C02D10020FEF7DDFE012CA3
:107DF00002D15046FEF7D8FE022C02D10020FEF739
:107E0000D3FE032C02D15046FEF7CEFE2D042D14D6
:107E10006D10761CCBE77F1CA2E70998007821281B
:107E200002D108F2040801E008F208080998401C91
:107E3000099086E701B0BDE8F08700BFE0FDFFFFD5
:107E400094BF00082DE9F04381B0804689460020A8
:107E500004005FF480702404240C844233D2494629
:107E6000404600190004000CFEF77EFE00200500CD
:107E70002D042D0C022D24D22404240C02202D04C8
:107E80002D0C04FB0050042148433C4908580700CE
:107E9000002006003604360C202E10D2380004D5FF
:107EA0005FF4FC60ADF8000002E00020ADF80000D7
:107EB000BDF80000FEF778FE7F00761CEAE76D1C37
:107EC000D6E7641CC5E7032004002D482404240CD5
:107ED000844213D2032120000004000CFEF744FE6C
:107EE0002948FEF761FEEC2120000004000CFEF79B
:107EF0003BFE2548FEF758FE641CE6E70021002003
:107F0000FEF732FE002005002D042D0CF02D04D2CA
:107F10001D48FEF749FE6D1CF6E703210320FEF71E
:107F200023FE032005002D042D0CED2D04D2164850
:107F3000FEF73AFE6D1CF6E703215FF49E70FEF734
:107F400013FE032005002D042D0CED2D04D20E4848
:107F5000FEF72AFE6D1CF6E700210A48FEF704FE34
:107F6000002005002D042D0CF02D04D20648FEF74C
:107F70001BFE6D1CF6E701B0BDE8F08384C5000868
:107F80003D0100003F010000FFFF000030BF7047CF
:107F900020BF704740BF7047BFF36F8F7047BFF37C
:107FA0004F8F7047BFF35F8F704701DF7047EFF36C
:107FB0001480704780F31488BFF36F8F7047EFF31E
:107FC0000980704780F309887047EFF30880704795
:107FD00080F30888704772B6704762B6704771B612
:107FE000704761B6704780F311887047EFF31280D5
:107FF000704740BA704700BA7047000010B5FDF7EF
:108000000FFFFDF761FFFDF7B9FF01F079F800F010
:1080100009FF02F059FDFEF741F8FEF76BF8FEF795
:10802000D5F8FEF7B9FC0020FEF7CEFD96211E2004
:10803000FFF708FFD04801B400235FF4FC6257212A
:108040000820FFF75DFE01B0CC4801B400235FF4C7
:10805000FC6237210820FFF753FE01B0C84801B485
:108060000023C84A17210820FFF74AFE01B0C6487E
:108070005FF4FA610180C4480088002817D0FEF739
:1080800015FA00200400B4F5967F04D2BF48782189
:108090000155641CF7E700200400B4F5805FEAD2C4
:1080A00002206043BA49BB4A0A52641CF5E700202B
:1080B000FEF78AFDFEF7D4FDFEF798FDFCF7EAFF18
:1080C000FCF70AFEB44800780028F7D0B3480078DF
:1080D000B34901220A54B0480078012812D1B148AE
:1080E00001210170B0480088002803D1AE48012169
:1080F000018007E0FEF7BEFAAB4800210180AB48E3
:1081000000210170A5480078002837D0012800F030
:108110008480022800F0E980032800F05B810428B5
:1081200000F0AB81052800F0DF81062800F0ED812A
:10813000072800F04782082800F06582092800F02F
:10814000A9820A2800F069830B2800F0FF830C281D
:1081500000F02F840D2800F0BF840E2800F0188551
:108160000F2800F04A85112800F05785122800F0EA
:10817000A085132800F0E78500F02ABE8648007825
:10818000052802D18548132101708348007806280C
:1081900002D18248012101707F48007804281AD159
:1081A00083480088012805D3814881490988491EF0
:1081B000018002E07E4803210180FEF75BFA7B48E4
:1081C000002101707B480021017077480021018067
:1081D00074480121017070480078032840F0F88548
:1081E00073480088032805D2714871490988491CE1
:1081F000018002E06E4800210180FEF73BFA6B48E7
:10820000002101706B480021017067480021018046
:1082100064480121017000F0DBBD5F48007805284B
:1082200002D15E48002101705B480078062802D127
:108230005A480221017058480078032821D15E482D
:10824000FEF70EFFFEF716FA5848002101705B4852
:108250000088002808D15A480088092804D25848C4
:1082600057490988491C018054480088012808D1D1
:1082700053480088122804D2514851490988491CA2
:10828000018045480078042821D14B48FEF7E8FEDC
:10829000FEF7F0F9454800210170484800880028A1
:1082A00008D147480088012804D345484449098833
:1082B000491E018041480088012808D140480088B3
:1082C0000C2804D33E483E490988491E01803C4899
:1082D00000883C4909780904090C884200F0788537
:1082E00039480121017000F073BD2B480078052842
:1082F00002D12A480121017027480078062802D1BE
:1083000026480321017024480078032810D12F4803
:10831000008815280CD22D482C490988491C018059
:108320002548FEF79DFEFEF7A5F9204800210170C3
:1083300019480078042810D12448008801280CD35B
:10834000224822490988491E01801B48FEF788FE01
:10835000FEF790F91548002101701C4800881C495F
:1083600009780904090C884200F032851648012179
:10837000017000F02DBD00BF84CD0008A4CD000821
:10838000BCCD0008FF0700005E2A0020DC22002090
:10839000DC020020940700007F2A0020C402002095
:1083A000800100208F01002076010020802A00201B
:1083B00058010020812A00205EC0000068010020D2
:1083C0005A01002056010020792A00205C0100207B
:1083D00057010020D9480078052802D1D848022149
:1083E0000170D6480078062802D1D54804210170D2
:1083F000D2480078032817D1D2480088DB2813D24E
:10840000D148FEF72DFED148FEF72AFEFFF73CF8D3
:10841000CC480088FEF760FECA48CA490988491C52
:108420000180CB4800210170C4480078042817D18E
:10843000C4480088152813D3C348FEF711FEC3486B
:10844000FEF70EFEFFF720F8BE480088FEF744FE58
:10845000BC48BC490988491E0180BD480021017003
:10846000B6480078022840F0B384B9480121B84AE0
:108470001278891A017000F0ABBCB048007805286A
:1084800002D1AF4803210170AC480078062805D11D
:10849000B04800210170AA4806210170A748007861
:1084A00003280CD1AC480088022805D2AA48AA4962
:1084B0000988491C018002E0A748002101809F48EB
:1084C0000078042840F08484A3480088012806D35B
:1084D000A148A1490988491E018000F079BC9E4845
:1084E0000221018000F074BC94480078052802D174
:1084F00093480421017091480078042840F0688472
:108500008F480621017000F063BC8C480078032876
:1085100008D19048012101708948042101708F48D9
:108520000121017085480078042805D1844807217D
:10853000017088480121017080480078062812D116
:1085400087480088874909884018DA280BDA854867
:10855000008883490988401A172804DB804880492D
:108560000988491C018075480078052840F030844E
:108570007B4800880128C0F02B847B487949098812
:108580000180784878490988754A128889180180DD
:1085900074480088FEF7A0FD724873490988704A44
:1085A0001288891A01806F480088FEF795FD6D4892
:1085B0006D49098801806A4869490988491E018016
:1085C00000F006BC5D480078032805D16148002111
:1085D00001705B480621017058480078042802D1D8
:1085E00057480821017055480078052804D05348A1
:1085F0000078062840F0EC835C4801215B4A128831
:10860000891A0180E4E34D480078032802D14C48E0
:10861000072101704948007804280AD1FEF798F92B
:10862000002803D146480921017002E044480B218B
:10863000017042480078052803D040480078062899
:108640000BD14148FEF70CFD4048FEF709FD4848B4
:108650000121474A1288891A01804548008800286C
:1086600008D1444800880A2804D34248414909886F
:10867000093901803E480088012840F0A9833D481F
:1086800000880A2880F0A4833A483A4909880931C9
:1086900001809DE3FEF75CF9002840F0BA8027488E
:1086A0000078032802D12648082101702348007869
:1086B000042802D122480A210170204800780628A7
:1086C00008D12D480088FF2804D22B482A49098860
:1086D000491C018019480078052808D126480088DF
:1086E000022804D3244824490988491E01801348DC
:1086F0000078022840F06C83204800210170204857
:10870000002101701C4801880906090E1D48FBF76D
:1087100013FFFBF735FF002871D11A48FBF7DEFF86
:10872000002862D100200400B4F5967F30D21648AC
:1087300000191649095D8170641CF5E77F2A002045
:10874000C4020020B60200205EC000008E0F0000B0
:10875000C3020020C202002060010020910100201D
:1087600064010020B4020020662A00206601002077
:10877000680100205A0100206A01002089010020C0
:108780007D2A002098010020942700200824002042
:10879000B54800210170B54800210170B448B549C1
:1087A00009880170B448B54909880170FCF78AF856
:1087B000002810D1B248B34909880180B148008827
:1087C000FF2804D2AF48AF490988491C0180AE4850
:1087D00001210170FCE2AD4801B40023AC4A022142
:1087E0005920FFF78DFA01B0F2E2AA4801B4002344
:1087F000A74A02215920FFF783FA01B0E8E2A64810
:1088000001B40023A24A02215920FFF779FA01B0EE
:10881000DEE2A2480B210170DAE2FEF799F80028A7
:1088200040F090809E480078032802D19B4809219F
:1088300001709B480078042802D198480B210170F0
:1088400097480078062808D18D480088FF2804D270
:108850008B488B490988491C01809148007805287C
:1088600008D187480088022804D3854884490988AC
:10887000491E01808A480078022840F0A982894870
:10888000FEF7EEFB88480021017088480021017046
:108890007B4801880906090E8548FBF74DFEFBF76A
:1088A0006FFE002841D18248FBF718FF002832D123
:1088B000FBF7FEFF002824D100200400B4F5967FCA
:1088C00006D27C486849091989780155641CF5E786
:1088D000674800780C2804D2664865490978018009
:1088E00002E064480421018063480078162804D21D
:1088F000624861490978018020E0604808210180D0
:108900001CE06D4801B40023614A02215920FFF7A1
:10891000F7F901B012E0694801B400235C4A022172
:108920005920FFF7EDF901B008E05B4801B40023DE
:10893000574A02215920FFF7E3F901B060480021AE
:10894000017045E255480B21017041E2544800781E
:1089500003280AD1FDF7FCFF002803D14F480A2164
:10896000017002E04D48082101704D48007804284C
:1089700002D14A480C21017049480078062808D1E4
:10898000504800880F2804D24E484E490988491C97
:10899000018043480078052840F01A824948008841
:1089A0000128C0F01582474846490988491E0180C0
:1089B0000EE23B480078032802D138480B210170B1
:1089C00037480078042802D134480D21017034481A
:1089D0000078022809D13C4801213B4A1278891AC3
:1089E00001703A480088FEF779FC2D480078062887
:1089F00017D1364800883649884212D23348008859
:108A0000FEF704FF31480088FEF768FC2F482F4925
:108A10000988491C01802F48002101702A48002143
:108A200001701F480078052816D1284800880328BF
:108A300012D326480088FEF7E9FE24480088FEF796
:108A40004DFC224821490988491E01802148002106
:108A500001701D4800210170E04801210170E048CB
:108A600001210170B4E100BF942700209527002068
:108A7000C22800205A010020C32800205C010020E9
:108A80006C0100206A01002089010020E4CD00086B
:108A9000FFFF0000F4CD000804CE0008C40200204F
:108AA0007F2A00205EC000008A0100207D2A00206D
:108AB000980100202800002014CE000824CE0008D1
:108AC000792A00206E010020782A0020C0020020B0
:108AD0002D010000772A0020C2480078032802D127
:108AE000C1480C210170BF480078042804D1BE4859
:108AF0000E210170FFF7B4F8BA480078022809D1B6
:108B0000BA480121B94A1278891A0170B848008818
:108B1000FEF7E4FBB3480078062817D1B448008874
:108B2000B449884212D2B2480088FEF76FFEB048BE
:108B30000088FEF7D3FBAE48AD490988491C018087
:108B4000AA4800210170AC4800210170A5480078B6
:108B5000052816D1A6480088032812D3A448008807
:108B6000FEF754FEA2480088FEF7B8FBA048A049D3
:108B70000988491E01809D48002101709E480021FE
:108B800001709648012101709548012101701FE193
:108B900094480078032804D193480D210170FFF711
:108BA00013F890480078042807D18F4811210170EC
:108BB000924801210170FFF707F88A4800780628DB
:108BC00009D18F48002101708E488E490988491CBF
:108BD0000180FFF745F883480078052809D18848C7
:108BE00000210170874887490988491E0180FFF7E5
:108BF00037F87B4801210170EAE07A4800780328C1
:108C000002D179480E21017076480078052840F09D
:108C1000DF80754811210170DAE07248007806287B
:108C200004D171480E210170FFF71AF86D480078E1
:108C3000052802D16C48122101706A480078022888
:108C400009D171480121704A1278891A01706F4860
:108C50000088FEF7C7FA63480078032810D16B48F4
:108C60000088DB280CD269480088FEF73FFD674882
:108C70000088FEF7B7FA654864490988491C0180F5
:108C800058480078042810D16048008815280CD373
:108C90005E480088FEF72AFD5C480088FEF7A2FACD
:108CA0005A485A490988491E01804D4801210170DE
:108CB0008EE04C480078062802D14B481121017003
:108CC00048480078052802D14748132101704548DB
:108CD0000078022809D14E4801214D4A1278891A9C
:108CE00001704C480088FEF77DFA3E480078032862
:108CF00010D148480088DB280CD246480088FEF78F
:108D0000F5FC44480088FEF76DFA4248414909885D
:108D1000491C018033480078042810D13D48008860
:108D200015280CD33B480088FEF7E0FC3948008842
:108D3000FEF758FA374837490988491E0180284804
:108D40000121017044E027480078062802D1264816
:108D50001221017023480078052802D12248002101
:108D6000017020480078022805D12B4801212A4AA9
:108D70001278891A01701B480078032812D12748FD
:108D80000088DB21264A1288891A88420ADAFEF70F
:108D900013FC22480088FEF79FF920481F490988E4
:108DA000491C01800F480078042811D11C48008814
:108DB00018301849098888420ADAFEF7FDFB17487F
:108DC0000088FEF789F9154814490988491E018071
:108DD000044800210170FFF771B900BF9001002025
:108DE000940100207F2A0020C4020020772A00205E
:108DF000BE0200202D010000782A002091010020F1
:108E0000822A002074010020762A0020BA02002065
:108E1000752A0020B8020020742A0020B402002025
:108E20006401002030B500200400002005000F4838
:108E300000F0FAF90E480088401C040001200D499A
:108E40000978891C884005000B4804FB05F1016086
:108E5000A3480121094A127891400160A1480649BE
:108E600009689F4A12685143016030BD6C27002099
:108E70007A270020802700204C2A00207427002019
:108E800000B529480068002813D15FF400729648A5
:108E900001685B4800F08AF940229821584801F0A7
:108EA000AFFF21485FF4E07101602048402101607C
:108EB00011E0402298211D480068514B181801F01C
:108EC0009FFF194818490968403901601748174938
:108ED0000968403101604021012002F03FFA302151
:108EE000012002F047F980487F490968403101605C
:108EF0007E487E4909684039016042484149096815
:108F0000403901607948006800280BD106480021EB
:108F100001600648002101607348002101603A4861
:108F20000321017000BD00BF5C25002060250020EA
:108F300010B52E480068403004002D480021016023
:108F40002A480068A04212D2284800682C49284AC2
:108F50001268284B9A5C0A54254825490968491C1F
:108F60000160224821490968491C0160E8E75E4820
:108F70005D490968204A1288891801605B485B498D
:108F800009681D4A1288891A0160584800685FF410
:108F9000007102F0EDFB00280BD1144800210160A4
:108FA0005FF400725048006814494118144800F0FA
:108FB000BDF81448134909680F4A1288891A0160DC
:108FC0005FF44051022002F0F1F8484800680028A0
:108FD00003D00D480078042806D104480021016020
:108FE0000121002000F05CFF10BD00BF64250020BF
:108FF00068250020A8290020682A002000FEFFFF25
:109000006C250020102A0020862A002010B582B08E
:1090100004002C4800782C490978090451EA0060C2
:109020002A49097850EA0120294909780143009129
:10903000284800782849097851EA002001902A48F8
:109040000099274A12685143016028480199244A2F
:109050001268514301602348006823490968234A84
:1090600012688918884211D22A2C02D1022000F0FD
:109070003DFF002000F03AFF2121052002F096FA82
:109080000021012000F00CFF002019E013480068C7
:1090900016490968884212D02A2C03D1022000F018
:1090A00025FF02E0002000F021FF2421052002F02E
:1090B0007DFA0021012000F0F3FE002000E00120F5
:1090C00002B010BDF9290020FA290020FB29002058
:1090D000FC290020FE290020FF290020F029002083
:1090E000482A0020442A002054250020582500202A
:1090F0005FF480710800401E0028FCD1704700001A
:1091000010B500200400FCF79DFF46485FF4805135
:109110000160002004000A2C04D2FF20FDF790F922
:10912000641CF8E700F01CFA10BD00002DE9F041C6
:1091300088460400150000200600FF20070038487C
:109140005FF480510160FFF7D3FFFF2241461820F2
:1091500000F0A2F9002000F0EFF900281BD1FF2059
:10916000FDF76EF9FE20FDF76BF9002006002D04D7
:109170002D0CAE4205D22078FDF762F9641C761CF6
:10918000F5E7FDF775F9FDF773F900F0ADF905287E
:1091900001D10020070023485FF480510160FF20C7
:1091A000FDF74EF93800BDE8F08100002DE9F041EF
:1091B00088460400150000200600FF20070018481C
:1091C0005FF480510160FFF793FFFF2241461120B9
:1091D00000F062F9002000F0AFF9002816D1FE205F
:1091E00000F0AAF9002811D1002006002D042D0C52
:1091F000AE4205D2FDF73CF92070641C761CF5E701
:10920000FDF736F9FDF734F90020070005485FF453
:1092100080510160FF20FDF713F93800BDE8F081AF
:10922000140C0140100C014070B584B00400002003
:109230000500FF20060096485FF480510160FFF7AB
:1092400057FFFF220021092000F026F9002000F03E
:1092500073F9002816D1FE2000F06EF9002809D11C
:1092600000200500102D05D2FDF702F9694648558A
:109270006D1CF7E7FF20FDF7E3F8FF20FDF7E0F8AE
:109280000020060083485FF480510160FF20FDF755
:10929000D7F89DF800000006000E800920709DF8A8
:1092A000000010F03C00801060709DF80000800706
:1092B000800FA0709DF80100E0709DF80200207101
:1092C0009DF8030060719DF804000001E080E088D3
:1092D0009DF805100906090E09090906090E014342
:1092E000E1809DF805000007000F20729DF8060040
:1092F0000006000EC00960729DF806004021014082
:1093000008008011A0729DF806002021014008008D
:109310004011E0729DF80600102101400800001184
:109320002073002060739DF806008007800F800284
:10933000E081E0899DF8071050EA8100E081E08932
:109340009DF808100906090E89090906090E01434E
:10935000E1819DF8080010F03800C01020749DF8DD
:1093600008004007400F60749DF809000006000ED9
:109370004009A0749DF8090010F01C008010E074F2
:109380009DF809008007800F40002075207D9DF822
:109390000A1050EAD11020759DF80A0010F07C00E8
:1093A000801060759DF80A008007800FC000A075CE
:1093B000A07D9DF80B1050EA5110A0759DF80B0090
:1093C000C006C00EE0759DF80C000006000EC00936
:1093D00020769DF80C0010F06000401160769DF83A
:1093E0000C0010F01C008010A0769DF80C00800787
:1093F000800F8000E076E07E9DF80D1050EA91101D
:10940000E0769DF80D0020210140080040112077F2
:10941000002060779DF80D0001210140A1779DF8A3
:109420000E000006000EC009E0779DF80E004021F6
:1094300001400800801184F820009DF80E002021D2
:1094400001400800401184F821009DF80E00102111
:1094500001400800001184F822009DF80E0010F071
:109460000C00801084F823009DF80E008007800F08
:1094700084F824009DF80F000006000E400884F8D0
:109480002500012084F82600300004B070BD0000E3
:10949000140C0140100C0140F0B582B004000D0026
:1094A00016000020070054F040008DF8000028004E
:1094B000000E8DF801002800000C8DF80200280035
:1094C000000A8DF8030028008DF804008DF805606F
:1094D00000200700062F05D26846C05DFCF7B0FFEC
:1094E0007F1CF7E702B0F0BD70B500200400412CEE
:1094F0001BD2FCF7BDFF0600F606F60E3606360E4A
:109500003000052804D00B2805D00D2805D006E032
:109510000520050005E00B200CE00D200AE0FF20EF
:109520000500052D01D0641CE1E7FCF7A1FF002830
:10953000FBD0300070BD000030B5040007480500C6
:10954000FCF796FFA04203D0002D01D06D1EF7E777
:10955000002D01D1FF2000E0002030BDFF0F0000F2
:1095600000B518485FF480510160FFF7C1FD9522F6
:1095700000210020FFF790FF0120FFF7DDFF00280A
:1095800001D0FF201CE010485FF480510160FF20F3
:10959000FCF756FF0B485FF480510160FF22002169
:1095A0000120FFF779FF0020FFF7C6FF0028EAD16E
:1095B00005485FF480510160FF20FCF741FF002067
:1095C00000BD0000140C0140100C01400B490B4A77
:1095D000126812F038020A600849084A1268024309
:1095E0000A6070470549054A126810239A430A60C9
:1095F0000249024A126802430A6070470020024092
:1096000070470000FEE70000FEE70000FEE70000F4
:10961000FEE7000070470000704700007047000040
:10962000704700007047000070470000704700005E
:10963000704700007047000070470000704700004E
:10964000704700007047000070470000704700003E
:10965000704700007047000070470000704700002E
:10966000704700007047000070470000704700001E
:1096700000B501F03DFB00BD00B501F09BFB00BD56
:1096800070470000704700007047000070470000FE
:1096900070470000704700007047000070470000EE
:1096A00010B525480021016024480088002804D016
:1096B000224822490988491E018021480078012852
:1096C00005D31F481E490978491E017032E01D4824
:1096D0001C490978491C01701A48007819280DD3D3
:1096E00018480021017018480078184901220A54CE
:1096F00017480121164A1278891A0170104814215E
:10970000017014480078002804D0124811490978E3
:10971000491E017010480078002804D00E480E49F8
:109720000978491E0170FCF701FE0400002C01D0ED
:109730000A48047010BD00BF100400405E2A0020DB
:109740007A2A00207D2A0020C40200208001002007
:109750007E2A00207C2A00207B2A00207F2A0020ED
:10976000704700007047000070470000704700001D
:10977000704700007047000070470000704700000D
:1097800070470000704700007047000070470000FD
:10979000704700003D49024A02430A6070470000DA
:1097A0000000FA05F0B481B00100002004000020A0
:1097B000050000200200002000900F200300C87860
:1097C000002841D03148006810F4E060D0F5E06036
:1097D000000A04000420001B0090E3404878009E2B
:1097E000B040040020008C781C4004432401087819
:1097F0008007800F08267043844008788010042674
:1098000070431B4E30580500FF200E78B607B60F88
:1098100008277E43B0400200954314402543087852
:10982000801004267043124E3550087806007611D9
:10983000042046430D4FB44601200E78F606F60E7E
:10984000B0406646B8510DE0087806007611042055
:109850004643084FB44601200E78F606F60EB04097
:109860006646B85101B0F0BC704700BF00E100E0AF
:1098700000E400E080E100E0034A024B0B400343B8
:109880001360704780FFFF1F08ED00E00CED00E063
:109890001B48002101601B48002101601A48142167
:1098A00001601A48002101601948002101603E480A
:1098B0003D49096851F0010101606F486E4909682E
:1098C0000D4A0A4002603848374909680B4A0A4085
:1098D00002603548344909687FF480220A400260FA
:1098E0006548654909687FF4FE020A40026009483C
:1098F00000210160704700BF0000FFF8FFFFF6FE87
:109900000C100240101002401410024018100240C7
:109910001C1002400810024000B52349224A126878
:109920007FF4803313400B601F491F4A12687FF495
:10993000802313400B6001005FF48032914204D019
:109940005FF48022914207D00CE01749164A126852
:1099500052F480320A6005E01349134A126852F447
:10996000A0220A6000BD000000B5312000F0B6F86A
:109970000B4908700B480B490968491C01600848ED
:109980000078002803D107480068FF28EDD1312076
:1099900000F0A4F8002801D0012000E0002000BD64
:1099A000852A0020A42900200010024000231A006C
:1099B000314B1B681A0013007FF47C121A4013000D
:1099C0000A0002431A432C4B1A60704702490006F2
:1099D000000E0860704700BF600042420022110084
:1099E000254A12681100032291430143224A116063
:1099F000704700002048006810F00C00704700001D
:109A0000002211001C4A12681100F0229143014308
:109A1000194A11607047000000221100164A1268AE
:109A200011000A007FF4E06111400143124A116005
:109A300070470000002211000F4A126811000A004E
:109A40007FF46051114051EAC0010B4A1160704728
:109A500001490860704700BFD8004242002211004F
:109A6000054A126811000A007FF440411140014389
:109A7000014A11607047000004100240002905D01F
:109A8000054A054B1B680343136004E0024A024B7E
:109A90001B6883431360704714100240002905D0EF
:109AA000054A054B1B680343136004E0024A024B5E
:109AB0001B6883431360704718100240002905D0CB
:109AC000054A054B1B680343136004E0024A024B3E
:109AD0001B688343136070471C10024010B40100E0
